:0200000460009A
:100000004643464200000156000000000101020084
:1000100000000000000000000000000000000000E0
:1000200000000000000000000000000000000000D0
:1000300000000000000000000000000000000000C0
:1000400000000000010403000000000000000000A8
:100050000000200000000000000000000000000080
:100060000000000000000000000000000000000090
:100070000000000000000000000000000000000080
:10008000EB04180A063204260000000000000000FD
:10009000050404240000000000000000000000002F
:1000A0000000000000000000000000000000000050
:1000B0000604000000000000000000000000000036
:1000C0000000000000000000000000000000000030
:1000D00020041808000000000000000000000000DC
:1000E0000000000000000000000000000000000010
:1000F0000000000000000000000000000000000000
:1001000000000000000000000000000000000000EF
:100110000204180804200000000000000000000095
:1001200000000000000000000000000000000000CF
:10013000600400000000000000000000000000005B
:1001400000000000000000000000000000000000AF
:10015000000000000000000000000000000000009F
:10016000000000000000000000000000000000008F
:10017000000000000000000000000000000000007F
:10018000000000000000000000000000000000006F
:10019000000000000000000000000000000000005F
:1001A000000000000000000000000000000000004F
:1001B000000000000000000000000000000000003F
:1001C000000100000010000001000000000000001D
:1001D000000000000000000000000000000000001F
:1001E000000000000000000000000000000000000F
:1001F00000000000000000000000000000000000FF
:10020000D4D4D4D4D4D4D4D4D4D4D4D4D4D4D4D4AE
:10100000D10020400020006000000000000000002F
:1010100020100060001000600000000000000000D0
:1010200000000060E4D4000000000000EFBEADDE70
:10103000124880F3088812481249016000F036F81F
:10104000114812490022814201D004C0FBE7104838
:101050001049114A814202D008CA08C0FAE70F4875
:101060004FF47001026842EA01020260BFF34F8F41
:10107000BFF36F8F00F014F800DE00000040002086
:1010800008ED00E0004000200050002098C500203E
:10109000B84200207C440020E8D4006088ED00E0E5
:1010A00040F2797CC0F2000C6047D4D41C4840F276
:1010B000924188420CBF1B4A1B4A1C4B5360136869
:1010C00023F0800313601A481A4901BF1A480A0C1A
:1010D0008264C1F30F014164016C41F004010164B9
:1010E0001648174A824205D01649814202D008CAE2
:1010F00008C0FAE71448154A824205D014498142D3
:1011000002D008CA08C0FAE71248134A824205D042
:101110001249814202D008CA08C0FAE770470000AD
:10112000240400000080034000C00B4020C528D9E3
:1011300000C00A40AAAAFAFF00400E4000000000CA
:10114000B822006068980000004000200020006085
:10115000B84200200000202020BB0060C4192020DD
:10116000D4D4D4D4D4D4D4D4D4D4D4D4D4D4D4D43F
:10117000D4D4D4D4D4D4D4D4D4D4D4D4D4D4D4D42F
:10118000D4D4D4D4D4D4D4D4D4D4D4D4D4D4D4D41F
:10119000D4D4D4D4D4D4D4D4D4D4D4D4D4D4D4D40F
:102000000040002031100060493400004D9800006D
:102010004934000049340000493400000000000049
:102020000000000000000000000000004934000033
:102030004934000000000000493400004934000029
:10204000493400004934000049340000493400009C
:10205000493400004934000049340000493400008C
:10206000493400004934000049340000493400007C
:10207000493400004934000049340000493400006C
:1020800049340000000000000000000000000000D3
:10209000493400004934000049340000493400004C
:1020A000493400004934000049340000493400003C
:1020B000493400004934000049340000493400002C
:1020C000493400004934000049340000493400001C
:1020D000493400004934000049340000493400000C
:1020E00049340000493400004934000049340000FC
:1020F00049340000493400004934000049340000EC
:1021000049340000493400004934000049340000DB
:1021100000000000493400000000000049340000C5
:1021200049340000493400004934000049340000BB
:102130004934000049340000000000004934000028
:10214000493400004934000049340000493400009B
:102150004934000049340000000000000000000085
:10216000493400004934000049340000493400007B
:10217000493400004934000049340000493400006B
:10218000493400004934000049340000493400005B
:10219000493400004934000049340000493400004B
:1021A000493400004934000049340000493400003B
:1021B000493400004934000049340000493400002B
:1021C0004934000049340000493400000000000098
:1021D000091F000049340000493400004934000060
:1021E00049340000493400004934000049340000FB
:1021F00049340000493400004934000049340000EB
:1022000049340000852E00004934000049340000A4
:1022100049340000493400004934000049340000CA
:1022200049340000493400004934000049340000BA
:102230004934000049340000493400000000000027
:102240000000000049340000493400004934000017
:10225000493400004934000049340000493400008A
:10226000493400004934000049340000493400007A
:10227000493400004934000049340000493400006A
:10228000493400004934000049340000493400005A
:10229000493400004934000049340000493400004A
:1022A00049340000493400004934000000000000B7
:0822B00049340000493400002C
:1022B800F0B503AF4DF8048D8C46816881B3C368CF
:1022C80041698B4249D20269D0F818E0D45C0134E4
:1022D800D4540EF102038B421ED80EF58074A1422D
:1022E80038BF0C469C4248D3E41A052C14D39CF8FA
:1022F8000640BCF80450D45413440EF107049CF86B
:1023080008608C429CF807805E704FEA15269D7025
:1023180083F80480DE7007D902205DF8048BF0BDD5
:1023280007205DF8048BF0BD8E451ED2072302F806
:102338000E300EF101038B423FBF0521D154846159
:1023480008203CBF5DF8048BF0BD40F2D412C2F205
:102358002002184608F02CF9FEDE40F2E412C2F220
:102368002002184608F024F9FEDE40F2C412704636
:10237800C2F2200208F01CF9FEDE40F2B412184640
:10238800C2F22002214608F028FDFEDEF0B503AFB8
:102398002DE9000B84B00D468046D1E920010C1AC6
:1023A800A24238BF144621183DD2802942D81E685F
:1023B80099463268116A0968BFF35F8F002942D0D5
:1023C80092F826202B1802A8009406F002FF9DF828
:1023D800080050B19DF8090088F80100012088F82C
:1023E800000004B0BDE8000BF0BD3068008B8442EB
:1023F80005D1D9F808000068411C022000E001203E
:10240800D9F80420C8F804401268C2E90001D5F8D8
:1024180080002044C5F88000002088F8000004B03F
:10242800BDE8000BF0BD40F26C22C2F2200208F0B9
:10243800D4FCFEDE40F26C220846C2F22002802163
:1024480008F0ABFCFEDE40F2185040F2A452C2F293
:102458002000C2F22002222108F075F8FEDEF0B555
:1024680003AF2DE9000F85B005460868002840F045
:10247800AA80002091F804B008600C4688680BF127
:1024880001012171002840F097804FF0FF3004F1DE
:102498000C069146A060FF20082103220290CDE996
:1024A800002130468021002206F0CDFD8A46A16831
:1024B800C00701F10101A16040F08C80206800286C
:1024C80040F0818094F8048000200029206008F101
:1024D8000102227170D14FF0FF310022A160022168
:1024E800CDE9001900210290304606F0ACFDA26843
:1024F800C00702F10102A26040F08180002A039126
:102508005AD14FF0FF300021A0600220CDE9000928
:10251800304602918021002206F095FDC00701BFD8
:1025280085F82CB04FF40070A5F8270085F8261020
:1025380001BFA5F8249004F14401296285F82D8093
:1025480001BF40F2FF32A5F80F2085F80EA008223F
:1025580001BFAA81A960A5F81B00039801BFA8764E
:10256800A5F818906961002001BFE885AA80A871C4
:10257800A06801BF4FF4FA5129600130A06002BF82
:1025880005B0BDE8000FF0BDA06840F29C2307F835
:102598001D1CC2F220030130A06040F21030A7F1E8
:1025A8001D02C2F22000009040F28C20C2F22000EE
:1025B8000F2108F01DF8FEDE40F2C840C2F22000EC
:1025C80007F058FFFEDE40F20850C2F2200007F084
:1025D80051FFFEDE40F2203040F29C23C2F2200080
:1025E800A7F11F02009040F28C20C2F22000C2F234
:1025F800200307F81FAC0F2107F0FAFFFEDE40F2B8
:10260800103040F29C23C2F2200007F81E1C0090F4
:1026180040F28C20C2F22000C2F22003A7F11E0271
:102628000F2107F0E5FFFEDE00220160027170470E
:1026380080B56F4682B0044607F0EAFE45F200080E
:102648000646C2F20008D8F80050FDB94BF2945083
:102658004FF4805CC2F2000000F5805150F80C2065
:10266800002A08BF0246D31D891A23F007039B1AC4
:1026780003F128058D423ED85119D51840F80C10A1
:102688002821284609F030FAC8F80050304607F0EB
:10269800C6FE05F1080040F2011150E8002FB2B95A
:1026A80040E80012002AF8D140F68100C0F200008C
:1026B8002146686105F12000FFF7B6FF204629464C
:1026C80007F059FC204607F0CEFC20BFFAE7BFF31D
:1026D8002F8F03F0BEFF40F20400C0F2000027F87D
:1026E800020CB81E07F077FE00F027F803F0D8FFB9
:1026F80007F080FEFEDE03F0ACFF40F20500C0F2FA
:102708000000ADF8040001A807F065FE03F0C8FF5B
:1027180007F070FEFEDE7047007840F220020B469C
:1027280040F24441C2F22001C2F2200251F82010C6
:1027380052F82020184608F006BB80B56F4682B0D4
:1027480040F20300C0F2000027F8020CB81E07F0A0
:1027580036FE02B080BDD0B502AF0C46517A0129D1
:1027680007D1117A012902BF90F82C1053888B42A7
:1027780000D0D0BD9179212904BF9188072928D09C
:10278800208800F00D00042818BFD0BDE06809219A
:1027980021800068BFF35F8F78B1A17C012206F029
:1027A8006AFEA0690068BFF35F8F00281FBFA17F82
:1027B8000122BDE8D04006F05EBE40F2185040F25B
:1027C800A452C2F22000C2F22002222107F0BBFE6E
:1027D800FEDE21880429CCD1E188002290F804C0CB
:1027E800012390F805E00729C4F8AC208279006835
:1027F80060622046238084F8282084F829E084F841
:102808002AC028BF0721C4F8B010BDE8D04000F0A6
:1028180015BDD0B502AF84B00C46517A012907D155
:10282800117A012902BF90F82C1053888B4201D0ED
:1028380004B0D0BD917981B1202912D0222942D18A
:102848001178228801F0010380F82E30062AC1F39E
:10285800400180F82F10EBD122E020880628E7D12C
:102868001EE0D4F8B010812957D206292BD994F844
:10287800281094F8293094F82AE00329626AB4F8F9
:1028880000C002604FF0000280F804E028BF114643
:10289800052B817138BF1A46BCF1060F4271C7D1AA
:1028A800A0690168BFF35F8F59B3A27F002040F28F
:1028B800FC53009002A8C2F2200306F08AFC08200C
:1028C800208004B0D0BD208800F00D000428AFD1CE
:1028D800E068092121800068BFF35F8F88B1A17C7F
:1028E800012206F0C8FDA0690068BFF35F8F0028C9
:1028F8001FBFA17F012204B0BDE8D04018BF06F079
:10290800BABD40F2185040F2A452C2F22000C2F2FE
:102918002002222107F017FEFEDE40F22C42084674
:10292800C2F22002802108F038FAFEDEF0B503AFCB
:102938004DF8048D84B090F82C6080460025022064
:10294800CDE900050C46084631460222022307F06D
:102958001CF8C1B2082963D120463146022202235D
:10296800009507F068F8C1B2082959D140F23C42F5
:102978002046C2F220022421032306F0A6FEC1B29B
:1029880008294DD140F23F422046C2F220022421BC
:10299800022306F09AFEC1B2082941D10620A7F108
:1029A800160207F8156C242198F82D60032307F800
:1029B800160C204607F8146C06F087FEC1B20829E9
:1029C8002ED10120A7F1130227F8130C2046242149
:1029D800032307F8116C06F078FEC1B208291FD14D
:1029E80008F108012046FFF763FCC1B2082917D196
:1029F80000203146009020460A22002307F01BF8E9
:102A0800C1B208290CD108F120012046FFF750FC7B
:102A1800C1B2082904D108F114012046FFF748FC87
:102A280004B05DF8048BF0BD80B56F4600F001F886
:102A3800FEDE80B56F4684B06C46204607F067FA24
:102A48002046FFF7F5FDFEDE00207047704708209E
:102A5800704770470830FFF77EBE0830FFF7D9BED1
:102A6800D0B502AF8AB0044690F82E00C9B28842A9
:102A780021D104F10800CDE90204D4E90010D4E919
:102A88005023022918BF00209342049015D150B357
:102A9800A06A0168BFF35F8F69B3002094F82E2005
:102AA80040F2B453009007A8C2F2200306F091FB4D
:102AB8009DF81C00D8B10AB0D0BD04AA099203AA97
:102AC800218C089202AA0928079288BF01398AB284
:102AD80004F1C00105A807ABFFF758FC9DF81400E6
:102AE80000280AB0D0BD002020600AB0D0BD012067
:102AF80020600AB0D0BD40F2185040F2A452C2F291
:102B08002000C2F22002222107F01DFDFEDE08305F
:102B1800FFF70CBF0822002182814FF4FA52C0E966
:102B28005011C0E92E11C18681738260016070471F
:102B380080B56F46ADF5C36D03AC204601F092FB3E
:102B480004F11C0002F0E6FA814646F20000DDF8C6
:102B580034E0C2F200000F9A00F59A538846BFF39A
:102B68005F8F53E8006F46F0004543E80054002C9F
:102B7800F7D1B6F1FF3FBFF35F8F40F3A18145F274
:102B8800040C0125C2F2000C0CF50066BFF35F8F40
:102B9800D6E84F4FC6E8415F0029F9D1002CBFF3B2
:102BA8005F8F40F09981ED9000F5905100F58050CD
:102BB8000DF56D7ACDE9F4E210224FF0000BCDE966
:102BC800F021CDE9EE2050460121CDE9F6C6ADF859
:102BD800E0B3F393F29204F0FAFECDF80880514680
:102BE8007DC90DF54D7808F1040CACE87D0091E83D
:102BF8007D0001218CE87D0040468DF868B3CDF852
:102C080034B306F033F8B8E84E00DBAC04F10C003E
:102C18004EC0B8E86E006EC098E86E006EC04FF403
:102C280080602146ADF870030AF108004022CDF813
:102C3800B0B3CDF874B3CDF86CB3FFF710FC0AF15C
:102C480038008021012208F04DFF0AF1C0068021DA
:102C58000122CDF870B43046CDF86CB408F042FFCC
:102C68003220214647F80E0C0220C4F2000047F833
:102C7800344C47F8120C102027F8140C45F62400A1
:102C8800C2F2DD700DF2FC4447F8180C112047F829
:102C9800240C40F2B450C2F22000CDF8F8B447F842
:102CA800280CA7F13400021D2046CDF8F4B4CDF865
:102CB800B4B347F820BC47F830BC01F0F6F80298E6
:102CC80047F2C9650121CFF6BE7500F01F004FF02D
:102CD800000801FA00FB40F2C850A7F13401C2F223
:102CE8002000012247E90DA0204600F0BBFFA8B153
:102CF8009DF8DE05811E18BF012141EA0801C907B8
:102D080006D00238B0FA80F0400948EA000805E029
:102D1800DDF8D80506F06BF94FF001082846C9F828
:102D280084B000BF0130FCD340F2C850A7F1340191
:102D3800C2F22000012247E90DA0204600F092FFD0
:102D4800A8B19DF8DE05811E18BF012141EA0801DE
:102D5800C90706D00238B0FA80F0400948EA0008EE
:102D680005E0DDF8D80506F042F94FF00108C9F88A
:102D780088B007F0FEFADDF8F8340246DDF8F4040E
:102D880012BAC3F1800A09BABAF1070F47F8042C3E
:102D980047F8081C17D8B0B1802801D180210AE073
:102DA80080F0A68031181A1A304608F09FFEDDF828
:102DB800F414DDF8F8345B1A0020CDF8F404C3F1FC
:102DC800800ACDF8F834BAF1080F28BF4FF0080A86
:102DD800BAF1000F14D01AEB030180F09D8080290E
:102DE80000F2A280F018A7F10801524608F005FB8E
:102DF800DDF8F814DDF8F40401EB0A03CDF8F83433
:102E0800DDE9ED1502294FF0000118BF0D46834298
:102E180018D1002D45D0F7980168BFF35F8F0029BE
:102E28006ED000209DF8E22340F2B4530090A7F141
:102E38003400C2F2200306F0CCF917F8340C90BB2A
:102E480001202FE0BDF8D413092D88BF01391C1AC1
:102E580089B2A14238BF0C4621186ED2802973D896
:102E6800F7990968BFF35F8F002949D09DF8E223DD
:102E78003318A7F13400009406F0ABF917F8340CB6
:102E880088B9BDF8D4136A1CDDF8F4048C424FF0FD
:102E98000101EE9208BF02212044ED91CDF8F4041F
:102EA80001E00020ED9047F2C965CFF6BE752846CF
:102EB80000BF0130FCD30DF56D7A0DF2FC440AE732
:102EC80040F2000040F22812C2F22000C2F22002B2
:102ED8001F2107F005FBFEDE40F2600040F23812C9
:102EE800C2F22000C2F22002202107F0F9FAFEDE29
:102EF80040F25C228021C2F2200207F059FBFEDE7C
:102F080040F2185040F2A452C2F22000C2F220024D
:102F1800222107F018FBFEDE40F27C221846C2F29E
:102F2800200207F05AFFFEDE40F27C22C2F22002A5
:102F38000846802107F031FFFEDE40F26C22C2F223
:102F4800200207F04AFFFEDE40F26C22C2F22002A5
:102F58000846802107F021FFFEDE7047D0B502AF9A
:102F680084B004460088062812D1A0690168BFF31E
:102F78005F8F81B10020A27F40F2FC53009002A82D
:102F8800C2F2200306F025F90820208004B0D0BD45
:102F9800072004B0D0BD40F2185040F2A452C2F24B
:102FA8002000C2F22002222107F0CDFAFEDEF0B5A1
:102FB80003AF4DF804BD86B0044608880D46411E8F
:102FC800032928D3052826D0072836D1D5F8AC0000
:102FD800D5F8063069898128D5F80220ADF80C109B
:102FE800CDE9012373D2E9680968BFF35F8F00292F
:102FF80061D0C0F18003AA7C2844009300F1240327
:1030080004A806F08FF99DF8100000283ED09DF81E
:10301800110008BB34E0E8680168BFF35F8F00293E
:1030280049D0AA7C40F2FC5304A80026C2F220032F
:10303800009606F077F92E8022E0E8680168BFF371
:103048005F8FC1B30020AA7C40F2FC53009004A813
:10305800C2F2200306F066F9E868092129800068B1
:10306800BFF35F8F38B3A97C012206F004FAA86980
:103078000068BFF35F8FF0B1A97F012206F0FBF96A
:103088000420607206B05DF804BBF0BD0598D5E970
:103098002B120844C5F8AC009042F1D3DDE90101D8
:1030A8000623BDF80C202B8020606160228106B0C9
:1030B8005DF804BBF0BD40F2185040F2A452C2F2D1
:1030C8002000C2F22002222107F03DFAFEDE40F283
:1030D8006C628021C2F2200207F03FFEFEDEF0B5EE
:1030E80003AF2DE9000F85B00446C8680D46016896
:1030F800BFF35F8F002900F08B8005F12406802044
:10310800AA7C009002A8334606F00CF99DF8080046
:1031180018B19DF8090060B921E0039A812A80F06E
:10312800838002A8314606F0B2FA9DF811000428FF
:103138001BD1E868092129800068BFF35F8F002848
:1031480066D0A97C012206F096F9A8690068BFF349
:103158005F8F00285CD0A97F012206F08CF904203B
:10316800607205B0BDE8000FF0BDE868BDF810A0BA
:103178009DF80F609DF80E90BDF80CB0DDF8088042
:103188000068BFF35F8F002842D0A97C002206F0B8
:1031980072F9BEB10420A5F80AA06E7285F80890ED
:1031A800A5F806B0C5F802802880A4F808A0E67142
:1031B80084F80690A4F804B0C4F8008005B0BDE80F
:1031C800000FF0BDBBF1000F11D0BBF1800FB0D8DC
:1031D8000020A5F80AA0C5E92B0B6872072085F81E
:1031E8000890A5F806B0C5F802802880B7E7062041
:1031F800A4F808A028800020C5F8B000E07184F881
:103208000690A080C4F8008005B0BDE8000FF0BDAE
:1032180040F2185040F2A452C2F22000C2F220023A
:10322800222107F090F9FEDE40F27C631046C2F2DC
:10323800200380211A4607F0B0FDFEDEB0B502AFCC
:1032480084B00446D0E92951D0F8AC00D4F8B0C015
:10325800002DA38BAE46ACEB000208BF04F1240E90
:103268009A4238BF1346002D03EB000C08BF80219B
:103278009C4525D38C452BD8A1690968BFF35F8F7E
:1032880071B3A27F00930EEB000302A805F0A1FF23
:103298009DF8080008B104B0B0BD0398D4E92B121A
:1032A8000144C4F8AC109142F5D30021A28BC4F8B4
:1032B800A4100321904208BF0221218004B0B0BDB0
:1032C80040F28C626146C2F2200207F086FDFEDE03
:1032D80040F28C626046C2F2200207F05EFDFEDE1C
:1032E80040F2185040F2A452C2F22000C2F220026A
:1032F800222107F028F9FEDEB0B502AF84B00446FB
:1033080000880138072834D8DFE800F0040B24339C
:103318003333334B2046FFF791FF0025284604B08E
:10332800B0BDA0690168BFF35F8F00293FD0A27FBD
:1033380040F2FC5302A80025C2F22003009505F0D4
:1033480048FF9DF80800002804BF03202080284675
:1033580004B0B0BDE0680068BFF35F8F38B3A17CEC
:103368000022002506F087F805202080284604B0B2
:10337800B0BDE068092121800068BFF35F8FB0B15C
:10338800A17C012206F077F8A0690068BFF35F8F7F
:1033980068B1A17F012206F06EF80025284604B026
:1033A800B0BD002001252080284604B0B0BD40F201
:1033B800185040F2A452C2F22000C2F22002222188
:1033C80007F0C1F8FEDED0B502AF0446008800F071
:1033D8000D00042815D1E068092121800068BFF399
:1033E8005F8F80B1A17C012206F045F8A0690068D2
:1033F800BFF35F8F38B1A17F012206F03CF80820A7
:10340800D0BD0720D0BD40F2185040F2A452C2F2FD
:103418002000C2F22002222107F095F8FEDEF0B566
:1034280003AF4DF804BD04460088042806D14D6852
:10343800802D07D902205DF804BBF0BD07205DF898
:1034480004BBF0BD096804F124002A46E68807F0A9
:10345800D4FF0020B54238BF2E46C4E92B06012010
:1034680020802046FFF7EAFE08205DF804BBF0BD87
:10347800B0B502AF8AB004460088042833D10020D2
:1034880080210790A7F10A028DF8200002230390FB
:10349800019040F20940069104F1240127F80A0C32
:1034A80001A805910321E58806F00FF9C1B20829A2
:1034B80017D10798802819D9E06809212180006868
:1034C800BFF35F8F00B3A17C012205F0D4FFA06990
:1034D8000068BFF35F8FB8B1A17F012205F0CBFF71
:1034E80002200AB0B0BD07200AB0B0BDA84238BF5C
:1034F80005460120002120802046C4E92B15FFF74E
:103508009DFE08200AB0B0BD40F2185040F2A45207
:10351800C2F22000C2F22002222107F014F8FEDED7
:10352800F0B503AF2DE9000788B0044600880428E9
:1035380048D1D1E9000680228D680021059204F166
:103548002402069104928DF81C10029100910168E2
:103558006846B4F8068006F09FF9C1B208292DD153
:103568008DB106EBC505E9464FF0000AD6E9000122
:10357800CA6849469047C1B208291FD10836CDF814
:1035880008A0AE42F2D1684606F0EEF90698802807
:103598001DD9E068092121800068BFF35F8F30B32F
:1035A800A17C012205F067FFA0690068BFF35F8F67
:1035B800E8B1A17F012205F05EFF022008B0BDE856
:1035C8000007F0BD072008B0BDE80007F0BD404582
:1035D80038BF80460120002120802046C4E92B18EE
:1035E800FFF72CFE082008B0BDE80007F0BD40F248
:1035F800185040F2A452C2F22000C2F22002222146
:1036080006F0A1FFFEDEF0B503AF2DE9000B8CB08C
:1036180081460088042827D100200D460790802184
:103628008DF82000164603900190099001A80B9090
:1036380009A8069109F12401B9F80680059106F058
:1036480045FBC1B208290BD1F40009AE8CB1F5E8ED
:1036580002010A6931469047083CC1B20829F5D0F1
:103668000CB0BDE8000BF0BD07200CB0BDE8000BA6
:10367800F0BD09A806F002FC079880281DD9D9F8E2
:103688000C000921A9F800100068BFF35F8F28B368
:1036980099F81210012205F0EEFED9F8180000681A
:1036A800BFF35F8FD0B199F81E10012205F0E3FE39
:1036B80002200CB0BDE8000BF0BD404538BF804685
:1036C80001200021A9F800004846C9E92B18FFF796
:1036D800B5FD08200CB0BDE8000BF0BD40F2185055
:1036E80040F2A452C2F22000C2F22002222106F0C7
:1036F8002AFFFEDEB0B502AF88B004460088042871
:103708002DD1D1E900120020802306908DF81C00ED
:10371800029000906846059304F12403E588049319
:1037280006F013FAC1B2082917D10698802819D9CA
:10373800E068092121800068BFF35F8F00B3A17C96
:10374800012205F098FEA0690068BFF35F8FB8B149
:10375800A17F012205F08FFE022008B0B0BD07202E
:1037680008B0B0BDA84238BF05460120002120801E
:103778002046C4E92B15FFF761FD082008B0B0BD4D
:1037880040F2185040F2A452C2F22000C2F22002C5
:10379800222106F0D8FEFEDEB0B502AF88B004469E
:1037A800008804282CD109680020802206908DF812
:1037B8001C00029000906846059204F12402E588F6
:1037C800049205F0CFFFC1B2082917D106988028C6
:1037D80019D9E068092121800068BFF35F8F00B321
:1037E800A17C012205F047FEA0690068BFF35F8F46
:1037F800B8B1A17F012205F03EFE022008B0B0BD9D
:10380800072008B0B0BDA84238BF054601200021F6
:1038180020802046C4E92B15FFF710FD082008B0CA
:10382800B0BD40F2185040F2A452C2F22000C2F2D9
:103838002002222106F087FEFEDEF0B503AF2DE957
:10384800000786B01D46904689468246D6000C463B
:1038580086B1F4E802012A464B6A51469847BAF8FD
:103868000000083E00F00D000428F1D006B0BDE8C5
:103878000007F0BD687A20B3BAF8000000F00D0028
:103888000428F3D1DAF80C000921AAF8001000681E
:10389800BFF35F8F00286ED09AF81210012205F04E
:1038A800EAFDDAF818000068BFF35F8F002862D0DD
:1038B8009AF81E10012205F0DEFD06B0BDE80007EB
:1038C800F0BD297AA87991B1012923D0022908BF2E
:1038D8000028D1D16988DAF8DC0001F08F0105F001
:1038E80034FE02210591A7F12201049130E020B3B2
:1038F800062834D00828BFD19AF8E20001210591A2
:10390800A7F1220102380491B0FA80F0400907F8C3
:10391800220C1FE050B10A28AED101200590A7F172
:1039280022000490002007F8220C13E002200590E2
:10393800A7F12200049000200AE09AF8E000022291
:103948009AF8E1100592A7F12202049241EA400098
:1039580027F8220C04A95046FFF761FD8CE7698817
:10396800424628885346CDE900010AF1B400494689
:1039780000F0D8F880E740F2185040F2A452C2F2A2
:103988002000C2F22002222106F0DDFDFEDED4D4A2
:10399800F0B503AF4DF8048D84B01D460E46804641
:1039A800D4006CB1F6E802012A460B6A41469847F2
:1039B800B8F80000083C00F00D000428F1D059E0E8
:1039C800687A30B1B8F8000000F00D00042851D131
:1039D80028E02A7AA879298892B1012A1ED0022AD9
:1039E80020D101284AD0032808BF00291AD16988A4
:1039F8000122D8F8DC0001F08F0105F03CFD88E0D9
:103A0800013808280ED8DFE800F0050D6A0D700DA2
:103A18000D0D7900012905D1002063E00B2808BFAE
:103A2800002936D0B8F8000000F00D00042821D194
:103A3800D8F80C000921A8F800100068BFF35F8FC0
:103A4800002840D098F81210012205F014FDD8F88B
:103A580018000068BFF35F8F00281FBF98F81E107A
:103A6800012204B05DF8048B1CBFBDE8F04005F0EE
:103A780002BD28E004B05DF8048BF0BD0029D1D167
:103A880069880022D8F8DC0001F08F0105F0F3FC0A
:103A98003FE0B8F8000006287FF494AFD8F8180083
:103AA8000168BFF35F8F71B198F81E20002040F2C3
:103AB800FC53009002A8C2F2200305F08AFB0820FC
:103AC800A8F800007EE740F2185040F2A452C2F273
:103AD8002000C2F22002222106F035FDFEDE012977
:103AE800A0D1012088F8E00013E0481E80B27F28AA
:103AF80098D2D8F8DC0005F0DBFA07E019B1012903
:103B080090D1022003E098F8E20030B1012088F853
:103B1800E2004046FFF722FA54E74046FFF753FC1D
:103B280050E7D4D4F0B503AF2DE9000B84B0D7E942
:103B380002690D4698464FF0FF330090B1B203EB8F
:103B480011210E2900F25C80DFE801F008101C5AF0
:103B58005A5A5A5A5A5A5A5A5A5A2B006946404679
:103B6800FFF71AFE04B0BDE8000BF0BD684601A9D6
:103B780001904046CDE90252FFF7D2FC04B0BDE8FF
:103B8800000BF0BDF1B2032914D8DFE801F0021FE1
:103B98002333404604B0BDE8000BBDE8F040FFF712
:103BA80067BC4046294604B0BDE8000BBDE8F040BC
:103BB800FFF729BDD4001CB3F5E802014A464B695A
:103BC80031469847083C0028F5D009E0011D0068F7
:103BD80028B915E000F10C010830006880B10968C7
:103BE800CDE9010101A94046FFF784FD04B0BDE815
:103BF800000BF0BD00F11401103000680028EED170
:103C0800B8F8000000F00D000428ABD1D8F80C007B
:103C18000921A8F800100068BFF35F8FB0B198F8C9
:103C28001210012205F027FCD8F818000068BFF32D
:103C38005F8F00281FBF98F81E10012204B0BDE84E
:103C4800000B1CBFBDE8F04005F015BC40F2185051
:103C580040F2A452C2F22000C2F22002222106F051
:103C680072FCFEDEF0B503AF2DE9000F8BB0D0F883
:103C7800DC400646A7F12E0088461546214605F089
:103C880093FC96F8E20037F82E1C032813D100297C
:103C98004FF0000018BF032903D10BB0BDE8000F97
:103CA800F0BD96F8E300042800F0F380042286F8BB
:103CB800E20086F8E320DFE801F003082548030066
:103CC80000200BB0BDE8000FF0BD204605F055FA06
:103CD80000204FF48061002D86F8E40086F8E000AB
:103CE800A6F8E2103080EBD008EBC504A8F108056F
:103CF80055F8080F69688969884705F10800A042E6
:103D0800F6D1DDE737F82C0C37F82A1C37F8282CC1
:103D18000390084340EA0209059104925FEAC970DA
:103D280047D00598C0071CBF3046FFF7E5FA04984E
:103D3800C00714D10398C0071BD1042007F81D0C35
:103D480017F81D0C04281DD131E0032186F8E30083
:103D580086F8E21000200BB0BDE8000FF0BDA7F117
:103D680026003146FFF7BBF917F81D0C042809D1C6
:103D78001DE0A7F126003146FFF719F917F81D0CC9
:103D8800042814D017F81F0C002873D080280ED1EF
:103D9800A7F12603304641462A46FFF74EFD29F093
:103DA8000109B9F1000FCDE9018507D14DE029F0EE
:103DB8000109B9F1000FCDE9018546D00299002922
:103DC80053D0019801264FF0020B00EBC108A0F177
:103DD800080504982C461BEA000F0AD054F8080F6F
:103DE80061688A6A3146904704F108004045F5D178
:103DF8000EE003982C461BEA000F09D054F8080F70
:103E08006168CA6A3146904704F108004045F5D117
:103E180005981BEA000F0DD066F07F04AA465AF8F1
:103E2800080FDAF804100A6B214690470AF10800D7
:103E38004045F4D129EA0B095FEA094005D0701C16
:103E48000F2E4FEA4B0B0646C3D3029969B101986E
:103E580000EBC104A0F1080555F8080F6968C969A5
:103E6800884705F10800A042F6D101200BB0BDE853
:103E7800000FF0BDA7F12603304641462A46FFF75A
:103E880087FD29F00109B9F1000FCDE9018595D128
:103E9800DBE740F29C6040F22072C2F22000C2F2DE
:103EA80020021C2106F01CFBFEDEF0B503AF2DE955
:103EB800000F85B00446886800287AD192F821A0BE
:103EC8004FF0FF3001F10C058860002090460E4647
:103ED800CDE9000A0290284600210122002305F0BE
:103EE800B2F88946B168C00701F10101B16067D134
:103EF80000295ED14FF0FF304FF0000BB06028462C
:103F0800802101228023CDE900BACDF808B005F060
:103F18009AF8C00769D1B0683268A4F81FB006F1F2
:103F2800440B0130002AA177A4F81CA0C4F818B0EB
:103F3800B06072D14FF0FF310028316074D128464B
:103F4800B16005F0EBF8B0680130B06073D34FF0A2
:103F5800FF308021B06004F12400BFF35F8F7564E7
:103F6800BFF35F8F07F0C8FD4FF0000CC4F8DC50BA
:103F7800A4F813C004F1B40184F81290A4F810A0B6
:103F8800C4F80CB0B8E86D006DC198E86D006DC15B
:103F9800042084F8E2C0C4E92BCCC4F8A4C0A4F877
:103FA80000C0A4F8E300A4F8E0C005B0BDE8000F25
:103FB800F0BD40F2C840C2F2200006F05BFAFEDE17
:103FC80040F2507040F23073C2F22000A7F11E0296
:103FD800009040F24000C2F22000C2F2200307F82D
:103FE8001E9C202106F004FBFEDEB06840F2307310
:103FF80007F81D1CC2F220030130B06040F2407087
:10400800A7F11D02C2F22000009040F24000C2F267
:104018002000202106F0ECFAFEDE40F2F840C2F261
:10402800200006F027FAFEDE40F2E840C2F2200047
:1040380006F020FAFEDE40F2D840C2F2200006F078
:1040480019FAFEDE7047007840F220020B4640F273
:10405800C071C2F22001C2F2200251F8201052F8B9
:104068002020184606F06FBEF0B503AF2DE9000B0F
:10407800CCB2984691460646250106F0C9F906EBEA
:1040880004114CF20C0C46F80590C4F21E0CC1F851
:104098000480336ADCF8185085EAC3755A0815EBB2
:1040A800C37342F10002B3EB090372EB080224D296
:1040B8002CB1012C0BD1CCF80890022302E001238B
:1040C800CCF80490DCF800201A43CCF80020326ABF
:1040D800DCF8183083EAC273560813EBC27246F153
:1040E8000003B2EB090273EB080206D2012406F0C2
:1040F80096F92046BDE8000BF0BD24B1012C09D18A
:104108006FF0020301E06FF00103DCF800201A40B1
:10411800CCF800204FF0FF320024C1E9002206F05D
:104128007EF92046BDE8000BF0BD44F2B8204CF201
:104138002401C2F20000C4F21E01006A096881EA83
:10414800C071420811EBC07042F100017047D0B550
:1041580002AF06F05DF944F2B821C2F2000191F80D
:104168002440012C9CBF621C81F8242006F057F9DA
:1041780000202146022C38BF0120D0BDF0B503AF86
:104188004DF804BD0D4644F2B821C0B2C2F2000198
:10419800144601EB001606F03BF9C6E902545DF837
:1041A80004BBBDE8F04006F03AB9014644F2B82035
:1041B800C2F20000FFF758BFF0B503AF4DF804BDD9
:1041C80006F026F94CF208050446C4F21E0544F22E
:1041D800B8262868C2F20006800606D5286840F08E
:1041E80020002860306A013030622868400706D510
:1041F800286840F004002860306A0130306268683E
:10420800C0071CBF28685FEAC0700DD168688007C6
:1042180044BF28685FEA807012D420465DF804BB6A
:10422800BDE8F04006F0FBB828684FF0FF3240F0D8
:1042380001002860D6E90210C6E900228847E5E7B0
:1042480028684FF0FF3240F002002860D6E90610D7
:10425800C6E90422884720465DF804BBBDE8F04063
:1042680006F0DDB8F0B503AF2DE9000FADF28C4DC7
:10427800054606F0CDF81DAC1C90204600F0A0FDC8
:1042880004F1340004F1380104F1540200F0FBFF9A
:104298006798016841F0010101606799086820F09A
:1042A800020008604D9C0020C1F80801C1F81801FF
:1042B800C1F828011B91C1F83801206820F00100DD
:1042C8002060206840F4004020602068000409D580
:1042D8002068000444BF20685FEA004002D52068D7
:1042E8000004F2D43F20A060206820F00100206084
:1042F8004E9E306820F001003060306840F4004085
:1043080030603068000409D53068000444BF306864
:104318005FEA004002D530680004F2D43F2040F242
:104328006341B060306820F001003060DDF87480CF
:10433800749AD8F8480040F00100C8F84800D8F846
:1043480044000843C8F84400D8F84400012161F348
:104358008300C8F84400D8F8440020F08000C8F86A
:104368004400D8F8480040F02000C8F84800D8F8C1
:10437800440040F44040C8F84400D8F8440040F4F1
:104388004470C8F84400D8F8480040F08000C8F8E5
:10439800480002F134001A921990D8F85800000722
:1043A8000CD0D8F8580000071CBFD8F858005FEAAE
:1043B800007003D0D8F858000007EED1D8F84800AC
:1043C80040F2634140F02000C8F84800D8F84400A3
:1043D80020F44040C8F84400D8F84400DDF878904C
:1043E80020F4447000F58870C8F84400D9F84800F3
:1043F80040F00100C9F84800D9F844000843C9F85A
:104408004400D9F84400012161F38300C9F844004D
:10441800D9F8440020F08000C9F84400D9F84800D1
:1044280040F02000C9F84800D9F8440040F4404062
:10443800C9F84400D9F8440040F44470C9F844006D
:10444800D9F8480040F08000C9F84800D9F8580069
:1044580000070CD0D9F8580000071CBFD9F858003D
:104468005FEA007003D0D9F858000007EED1D9F8F8
:10447800480002220F2340F02000C9F84800D9F86C
:10448800440020F44040C9F84400D9F8440020F41E
:10449800447000F58870C9F844007C998DA803F031
:1044A80091F877999FA84FF4805203F04DF84498FB
:1044B8000C9046980B9047980890489807907E98DB
:1044C8000690819805908398DDE934120490A3A89A
:1044D80003F035F92A980F2218902B9817903298E4
:1044E80016903D98099055981590579814905C9897
:1044F800139062981290609811905E9810905F984F
:104508000F9064980E905D9869990D903E9803906D
:104518003F9802904FF470400A91DDF8A8A1A1F8E5
:104528008C016B9BDDF8B0B10193A1F88E210F21AE
:10453800AAF88C01AAF88E21A3F88C01A3F88E2181
:104548004FF40072ABF88C01ABF88E11A3A9089850
:104558002862079868620698A8620598E862049835
:1045680028631B98C5E90446C5E90000C5E90200AF
:104578000C98A8610B98E86105F5907007F0BAFAF5
:104588001A980BF1600219990BF5907C5030C5E927
:1045980029B20A9AC5E9C80105F1BC010998C5F80C
:1045A800B4000398C5F8B800029881E801030BF13C
:1045B800C0010198C5E92B1C0AF1C00100F59073F0
:1045C80000F1C00600F16004C5E9230002F1C00053
:1045D8002867189868631798A8631698E863159869
:1045E800C5E925460AF59074C5E9273B02F590739D
:1045F80028640AF160061498C5E91D3A109B68649E
:104608001398C5E9211402F160016B650F9BA8643A
:104618001298AB650E9BE8641198EB650D9BC5E994
:104628001A218DA9286505F1C800C5E91832482264
:10463800C5E91FA607F05EFA9FAB05F5887C0FCB8E
:104648008CE80F0005F0E4FE4CF20001C4F21E01F4
:104658000A6822F001020A600A6842F400420A600D
:104668000A68120409D50A68120444BF0A685FEA96
:10467800024202D50A681204F2D43F2240F6FF73C0
:104688008A600A6822F001020A600A6842F4A86295
:1046980022F080020A604A689A434A604FF000425A
:1046A8008A610A6842F400720A600A6842F00202EB
:1046B8000A600A6842F001020A60CA6842F004020D
:1046C800CA60CA6842F02002CA6005F0A8FE1C98B9
:1046D80005F0A5FE0DF28C4DBDE8000FF0BD80B5CC
:1046E8006F4600F001F8FEDE80B56F4648F24810CC
:1046F8000521C4F21F004BF2004301603821C0F8C5
:10470800F0114CF26C00C4F20A0041F6004E016848
:104718004EF6004CC0F2C443C0F64E6E21F00801BC
:1047280001604CF28400C2F2601CC4F21B0050F815
:10473800801C41F0080140F8801C082101601A46DD
:10474800013AFDD141601A46013AFDD101601A468D
:10475800013AFDD141601A46013AFDD101601A467D
:10476800013AFDD141607246013AFDD101607246BD
:10477800013AFDD141601A46013AFDD10160724605
:10478800013AFDD141601A46013AFDD101607246F5
:10479800013AFDD141607246013AFDD101601A46E5
:1047A800013AFDD141601A46013AFDD101601A462D
:1047B800013AFDD141601A46013AFDD101601A461D
:1047C800013AFDD141606246013AFDD1B6E7704732
:1047D8007047007840F220020B4640F66441C2F26E
:1047E8002001C2F2200251F8201052F82020184669
:1047F80006F0A9BA084640F6D621C2F220011222D4
:1048080006F0A1BAF0B503AF2DE9000FB3B04BF233
:10481800301180464BF24850C2F20001C2F200004B
:10482800016049F20000C2F2000041F2381142185A
:10483800BFF35F8F52E8001F41F0004342E80036A3
:10484800002EF7D1B1F1FF3FBFF35F8F40F34482F1
:1048580048F214020126C2F2000202F5C071BFF349
:104868005F8FD1E84F3FC1E8456F002DF9D1002B8C
:10487800BFF35F8F40F03C82309249F20002C4F2ED
:104888000D0231912F92002241F23811C4F22E020A
:104898002E920144279000F5865200F580500DF1C4
:1048A8009C0B2D9106214FF0000ACDE928102C9180
:1048B8005846CDE92A120121ADF8C8A04FF00109E8
:1048C80003F085F8BBE87E000DF1140C0CF1040030
:1048D8007EC09BE87E007EC0604601218DF848902E
:1048E8006646CDF814A004F0C1F99DF8480038B325
:1048F8000598002840F008824FF0FF3027AD05905A
:104908000020279006F1200028902846D8F800407B
:1049180002F0E1FF284603F026F82846012103F0BB
:104928002EF82846012102F0EEFF2846214602F023
:10493800F8FF284602F0DBFF0598013005902DE0CE
:10494800EFF3108972B60598002840F0DD814FF02A
:10495800FF3027AD05900020279006F12000289011
:104968002846D8F8004002F0B6FF284602F0FBFFC0
:104978002846012103F003F82846012102F0C3FF6D
:104988002846214602F0CDFF284602F0B0FF0598E0
:10499800013005905FEAC97000D162B630464BF22B
:1049A800000AC2F2000A0AF10C0B5CC859465CC145
:1049B8007CC87CC190E87C0000207CC140F20141A9
:1049C8000322AAF804104FF0FF31CAF80810082192
:1049D800CAF844008023CAF80000FF20CDE900216E
:1049E800802102905846002204F02DFB0D46DAF88B
:1049F8000810C00701F10101CAF8081040F08B81C6
:104A0800DAF80000002840F08D819AF80460002050
:104A18000029CAF8000006F101028AF8042040F0D3
:104A280054814FF0FF310222CAF808104021CDE925
:104A380000210021029058460022002304F003FBC5
:104A48000C46DAF80810C00701F10101CAF808108D
:104A580040F06F81002940F038814FF0FF304FF06F
:104A68004009CAF8080002204FF00008CDE9000903
:104A78005846802100228023CDF8088004F0E3FA0C
:104A8800DAF80820C00702F10102CAF8082040F04D
:104A980053814BF24C504FF40073C2F20000002ACD
:104AA80080F8261040F2FF3180F82D600AF14406A4
:104AB800A0F80F104FF00801818181804FF4FA515E
:104AC800A0F82E8080F82C80A0F82730A0F8249039
:104AD8000662A0F81B308476A0F8189046618573AA
:104AE800866080F80680016040F0EF804FF0FF306C
:104AF8004021CAF808000020CDE9000100210290F9
:104B080058460122002304F09EFA8946DAF8081074
:104B1800C00701F10101CAF8081040F021810029FD
:104B280040F0D3804FF0FF304021CAF80800002041
:104B3800CDE900018021029058460122802304F02B
:104B480082FA8846DAF80810C00701F10101CAF8AC
:104B5800081040F00C81DAF80000002840F01B81B2
:104B68004FF0FF300029CAF8000040F01B81CAF856
:104B78000800584604F0D2FADAF808000130CAF8FA
:104B88000800C0F016814FF0FF3005ADCAF80800E4
:104B9800E81CBFF35F8FCAF844B08021BFF35F8F72
:104BA80006F0A6FF5846812104F0A0F858460121D6
:104BB80004F09CF85846822104F098F858460221DF
:104BC80004F094F85846832104F090F858460321DD
:104BD80004F08CF85846842104F088F858460421DB
:104BE80004F084F85846852104F080F858460521D9
:104BF80004F07CF85846862104F078F858460621D7
:104C080004F074F85846872104F070F858460721D4
:104C180004F06CF84BF24804DDE92701C2F2000405
:104C2800BDF8A420628137F84F2CC4F8061017F895
:104C38004D1CC4F8020004F12100A4F815208322B9
:104C4800E175294606F0D9FB4FF0806140F6E8226D
:104C5800C4E937B13221C4F8D6100221C4F20001E8
:104C6800C2F22002C4F8D2101021A4F8D01045F6E0
:104C78002401C2F2DD710020C4F8CC100921C4E976
:104C88002F21402117F8D52C37F8D73C84F8E400B9
:104C9800C4F8C400C4E92B00C4F8B400C4F8A400E4
:104CA800A4F81F0084F81E80A183A661A4F813004D
:104CB80084F812902182E6602080A4F8E53084F818
:104CC800E72033B0BDE8000FF0BD40F66010C2F237
:104CD800200005F0CFFBFEDE40F6540040F6DC0273
:104CE800C2F22000C2F220021F2105F0F9FBFEDE0D
:104CF80040F2600040F6EC02C2F22000C2F220024C
:104D0800202105F0EDFBFEDE40F64400C2F2200053
:104D180005F0B0FBFEDE40F668208DF81450C2F2B4
:104D280020000FE040F6A010C2F2200005F0A2FB20
:104D3800FEDE8DF8144001E08DF8141040F658207E
:104D4800C2F2200040F6B013009040F6482005AAB1
:104D5800C2F22000C2F220030F2105F049FCFEDE5A
:104D680040F638208DF81490C2F2200005E040F695
:104D780028208DF81480C2F2200040F6B01300906D
:104D880040F2400005AAC2F22000C2F2200320210E
:104D980005F02EFCFEDE40F69010C2F2200005F071
:104DA80069FBFEDE40F68010C2F2200005F062FBCF
:104DB800FEDE40F67010C2F2200005F05BFBFEDE5E
:104DC800F0B503AF2DE9000F81B048F200014FF0B4
:104DD800010CC2F20001BFF35F8FD1E84F2FC1E889
:104DE80043CF002BF9D1BFF35F8F002A01BF48F2F0
:104DF8000001C4F20D010022C4F22F0201BF02F526
:104E0800542C02F5502E02F54C28A1F5004401BFA0
:104E1800A1F5003501F5F61601F5F413C0E9683679
:104E280001BFC0E96A54C0E96C8EC0E96EC101F5E2
:104E3800005E01BF01F5805640F2040CC4F22E0C4E
:104E480001F5021401BF0CF5FE7501F5004300F5EC
:104E5800C07888E8380001BF00F5C67383E81210EF
:104E6800C0E9666EA1F5404C01BF01F5881E01F549
:104E7800861801F5841401F5821301BF01F5003687
:104E880002F51025C0E9585600F5B47501BF85E84C
:104E98001A41C0F87CC1A1F5804C02F51C2E01BF57
:104EA80002F5182802F51424A1F5E03301F52826A7
:104EB80001BF01F5EE15C0E9505600F5A47585E867
:104EC800184101BFC0E9562C02F5782802F574296B
:104ED80002F5702401BF02F56C234CF2000CC4F2F9
:104EE800070C0CF5004601BF01F5E03E01F58E15F3
:104EF800C0E9485EC0E94A6101BF00F5987585E8D8
:104F08001802C0F83C8101F5482801BF01F5442981
:104F180001F5402A01F53C2B01F5382301BF01F5C5
:104F2800342401F5302501F52C26C0E9406501BF80
:104F3800C0E94243C0E944BAC0E9469802F53028BE
:104F480001BF02F52C2902F5282A02F5242B02F5C7
:104F5800861301BF02F5841402F5821502F5801646
:104F6800C0E9386501BFC0E93A43C0E93CBAC0E9C5
:104F78003E9801F5F01801BF01F59219A1F5503AD4
:104F8800A1F5403BA1F5303301BF01F5901401F5BF
:104F98008C1501F58A16C0E9306501BFC0E93243B6
:104FA800C0E934BAC0E9369844F2000B01BFC4F234
:104FB800002B0BF500490BF5804A4FF0844801BFE0
:104FC80001F56C2601F5682401F56425A1F5C033C7
:104FD80001BFC0E9283500F1A80383E85009C0E9FA
:104FE8002EA901BF01F5602801F5E61901F5E81AB7
:104FF800A1F5203601BF0BF5E03301F5582401F582
:105008005425C0E9205401BF00F1880484E848040D
:10501800C0E9259EC0F89C8001BFA1F5103E01F5AE
:10502800FE1801F5001902F5642A01BF02F5602394
:1050380002F55C2602F5582501F5A03401BF00F100
:10504800600B8BE87000C0E91B3AC0E91D9801BFEE
:10505800C0F87CE001F5803E02F540480CF5804937
:1050680001BF01F5804A01F5F21344F20806C4F2C3
:10507800090601BF06F1100506F10804C0E910642D
:10508800C0E9125301BFC0E914A9C0E9168E0CF596
:10509800C03E01F5103801BF01F5801901F57C24E7
:1050A80001F5782302F57C2601BF02F54825C0E901
:1050B800085600F1280585E8180201BFC0E90D81EE
:1050C800C0F83CE002F5442E02F50C2601BF01F5BC
:1050D800D21501F5242402F54022A1F5803301BF41
:1050E800A1F5A031C0E90013C0E9022C103001BFBE
:1050F80080E8704001B0BDE8000FF0BD40F6F12037
:1051080040F69032C2F22000C2F22002352105F0AA
:105118001AFAFEDE48F248110068C4F21F0105239E
:105128000A6863F303020A60416841F008014160BC
:1051380003217047F0B503AF4DF804BD86B048F2BF
:105148000406C2F20006306830B106B05DF804BB50
:10515800BDE8F04001F0BCB844F2E020C2F2000023
:105168000068062829D14FF47A60012203904BF297
:105178003010C2F20000BFF35F8F00F21240D0E897
:105188004F1FC0E8432F002BF9D10029BFF35F8FD1
:105198004BD14BF230144FF48061C2F20004204628
:1051A80006F0AAFC05F034F90546204600F0DDFDBE
:1051B80003A8FFF727FB28462CE04FF47A6001226A
:1051C80002904BF23010C2F20000BFF35F8F00F282
:1051D8001240D0E84F1FC0E8432F002BF9D1BFF38E
:1051E8005F8FA1BB4BF230154FF48061C2F200050E
:1051F800284606F081FC05F00BF944F2E02104464C
:10520800C2F20001284601F089FCE8B902A8FFF7BC
:10521800F9FA204605F003F944F22100C0F2000033
:10522800306006B05DF804BBF0BD49F20000C4F27E
:105238000D0005900020C4F22E00CDE9030040F6D1
:105248005440C2F2200010E0204605F0E8F849F288
:105258000000C4F20D0005900020C4F22E00CDE934
:10526800030040F64440C2F2200040F6CC330090E0
:1052780040F6A03003AAC2F22000C2F220032B217C
:1052880005F0B6F9FEDEF0B503AF4DF804BD0E46E5
:1052980000211546044602F04BFA284640F2E24146
:1052A80002F025F9304602F0DDF940F2A00521466A
:1052B800C2F2200500222846366802F0F9F9A81C37
:1052C8002146002202F0F4F9281D2146002202F0AE
:1052D800EFF9A81D2146002202F0EAF905F10800BD
:1052E8002146002202F0E4F905F10A0021460022D5
:1052F80002F0DEF905F10C002146002202F0D8F98F
:1053080005F10E002146002202F0D2F905F1100045
:105318002146002202F0CCF905F1120021460022B4
:1053280002F0C6F905F114002146002202F0C0F986
:1053380005F116002146002202F0BAF905F118001D
:105348002146002202F0B4F905F11A002146002294
:1053580002F0AEF905F11C002146002202F0A8F97E
:1053680005F11E002146002202F0A2F920684169D9
:10537800890107D5416921F000714161204602F099
:10538800C8F920684169012221F060514161206813
:10539800816962F30D318161204602F0BAF9206813
:1053A800416941F000714161204602F0B2F94FF4C1
:1053B80080503060642030604FF400507060306876
:1053C800002809D4306800285CBF3068002803D45E
:1053D8003068B0F1FF3FF2DC20680122016962F316
:1053E80002010161204602F094F92068416921F424
:1053F800E0514161204602F08CF92068816941F44E
:10540800402181612068416921F000714161204695
:1054180002F07FF9206840F68E45C2F2200500228E
:10542800416941F4407141612846214602F040F942
:10543800A81C2146002202F03BF9281D2146002223
:1054480002F036F9A81D2146002202F031F9206841
:10545800022640F696450022C2F22005816B66F3CB
:10546800D84181632068816B41F48021816328469B
:10547800214602F01DF9A81C2146002202F018F965
:10548800281D2146002202F013F9A81D21460022FA
:1054980002F00EF9206840F684450322C2F2200586
:1054A800816966F3051181612068816962F39C61F5
:1054B800816128462146002202F0FAF8A81C2146FC
:1054C800002202F0F5F8281D2146002202F0F0F82B
:1054D800A81D2146002202F0EBF805F1080021463C
:1054E800002202F0E5F82068172240F27235C2F275
:1054F8002005C16962F30501C16120680022C16904
:1055080041F04001C1612846214602F0D1F8A81CAB
:105518002146002202F0CCF8281D2146002202F084
:10552800C7F8A81D2146002202F0C2F805F10800BC
:105538002146002202F0BCF805F10A0021460022AB
:1055480002F0B6F805F10C002146002202F0B0F88E
:1055580005F10E002146002202F0AAF8206840F664
:105568009E45C2F220050322416A41F04001416292
:105578002068416A66F3050141622846214602F027
:1055880097F8A81C2146032202F092F8281D21460C
:10559800032202F08DF8A81D2146032202F088F8A4
:1055A80005F108002146032202F082F805F10A00FD
:1055B8002146032202F07CF805F10C002146032263
:1055C80002F076F805F10E002146032202F070F889
:1055D80005F110002146032202F06AF805F11200D5
:1055E8002146032202F064F805F114002146032243
:1055F80002F05EF805F116002146032202F058F881
:1056080005F118002146032202F052F805F11A00AC
:105618002146032202F04CF805F11C002146032222
:1056280002F046F805F11E002146032202F040F878
:1056380005F120002146032202F03AF805F1220084
:105648002146032202F034F805F124002146032202
:1056580002F02EF805F126002146032202F028F870
:1056680005F128002146032202F022F805F12A005C
:105678002146032202F01CF805F12C0021460322E2
:1056880002F016F805F12E002146032202F010F868
:1056980005F130002146032202F00AF805F1320034
:1056A8002146032202F004F805F1340021460322C2
:1056B80001F0FEFF05F136002146032201F0F8FF54
:1056C80005F138002146032201F0F2FF05F13A0006
:1056D8002146032201F0ECFF05F13C00214603229C
:1056E80001F0E6FF05F13E00214603225DF804BB08
:1056F800BDE8F04001F0DCBFFEE7F0B503AF2DE9EF
:10570800000786B01D46904689468246D6000C465C
:1057180086B1F4E802012A464B6A51469847BAF81E
:105728000000083E00F00D000428F1D006B0BDE8E6
:105738000007F0BD687A20B3BAF8000000F00D0049
:105748000428F3D1DAF80C000921AAF8001000683F
:10575800BFF35F8F00286ED09AF81210012203F071
:105768008AFEDAF818000068BFF35F8F002862D05D
:105778009AF81E10012203F07EFE06B0BDE800076D
:10578800F0BD297AA87991B1012923D0022908BF4F
:105798000028D1D16988DAF8DC0001F08F0103F024
:1057A800D4FE02210591A7F12201049130E020B333
:1057B800062834D00828BFD19AF8E20001210591C3
:1057C800A7F1220102380491B0FA80F0400907F8E5
:1057D800220C1FE050B10A28AED101200590A7F194
:1057E80022000490002007F8220C13E00220059004
:1057F800A7F12200049000200AE09AF8E0000222B3
:105808009AF8E1100592A7F12202049241EA4000B9
:1058180027F8220C04A9504601F08CFD8CE7698812
:10582800424628885346CDE900010AF1B4004946AA
:1058380000F0D8F880E740F6206040F6AC62C2F28B
:105848002000C2F22002222104F07DFEFEDED4D424
:10585800F0B503AF4DF8048D84B01D460E46804662
:10586800D4006CB1F6E802012A460B6A4146984713
:10587800B8F80000083C00F00D000428F1D059E009
:10588800687A30B1B8F8000000F00D00042851D152
:1058980028E02A7AA879298892B1012A1ED0022AFA
:1058A80020D101284AD0032808BF00291AD16988C5
:1058B8000122D8F8DC0001F08F0103F0DCFD88E05C
:1058C800013808280ED8DFE800F0050D6A0D700DC4
:1058D8000D0D7900012905D1002063E00B2808BFD0
:1058E800002936D0B8F8000000F00D00042821D1B6
:1058F800D8F80C000921A8F800100068BFF35F8FE2
:10590800002840D098F81210012203F0B4FDD8F80E
:1059180018000068BFF35F8F00281FBF98F81E109B
:10592800012204B05DF8048B1CBFBDE8F04003F011
:10593800A2BD28E004B05DF8048BF0BD0029D1D1E8
:1059480069880022D8F8DC0001F08F0103F093FD8C
:105958003FE0B8F8000006287FF494AFD8F81800A4
:105968000168BFF35F8F71B198F81E20002041F2E3
:10597800C003009002A8C2F2200303F02AFC08200A
:10598800A8F800007EE740F6206040F6AC62C2F25C
:105998002000C2F22002222104F0D5FDFEDE0129FA
:1059A800A0D1012088F8E00013E0481E80B27F28CB
:1059B80098D2D8F8DC0003F07BFB07E019B1012985
:1059C80090D1022003E098F8E20030B1012088F875
:1059D800E200404601F0C0F854E7404601F0F1FA11
:1059E80050E7D4D4F0B503AF2DE9000B84B0D7E964
:1059F80002690D4698464FF0FF330090B1B203EBB1
:105A080011210E2900F25C80DFE801F008101C5A11
:105A18005A5A5A5A5A5A5A5A5A5A2B00694640469A
:105A280001F0FBFA04B0BDE8000BF0BD684601A91F
:105A380001904046CDE9025201F040FB04B0BDE8B8
:105A4800000BF0BDF1B2032914D8DFE801F0021F02
:105A58002333404604B0BDE8000BBDE8F04001F038
:105A680092BC4046294604B0BDE8000BBDE8F040B2
:105A780001F097BBD4001CB3F5E802014A464B6914
:105A880031469847083C0028F5D009E0011D006818
:105A980028B915E000F10C010830006880B10968E8
:105AA800CDE9010101A9404601F0F2FB04B0BDE8CF
:105AB800000BF0BD00F11401103000680028EED191
:105AC800B8F8000000F00D000428ABD1D8F80C009D
:105AD8000921A8F800100068BFF35F8FB0B198F8EB
:105AE8001210012203F0C7FCD8F818000068BFF3B1
:105AF8005F8F00281FBF98F81E10012204B0BDE870
:105B0800000B1CBFBDE8F04003F0B5BC40F62060B8
:105B180040F6AC62C2F22000C2F22002222104F058
:105B280012FDFEDEF0B503AF2DE9000F8BB0D0F803
:105B3800DC400646A7F12E0088461546214603F0AC
:105B480033FD96F8E20037F82E1C032813D10029FC
:105B58004FF0000018BF032903D10BB0BDE8000FB8
:105B6800F0BD96F8E300042800F0F380042286F8DC
:105B7800E20086F8E320DFE801F003082548030087
:105B880000200BB0BDE8000FF0BD204603F0F5FA89
:105B980000204FF48061002D86F8E40086F8E000CC
:105BA800A6F8E2103080EBD008EBC504A8F1080590
:105BB80055F8080F69688969884705F10800A04207
:105BC800F6D1DDE737F82C0C37F82A1C37F8282CE3
:105BD8000390084340EA0209059104925FEAC970FC
:105BE80047D00598C0071CBF304601F083F90498D8
:105BF800C00714D10398C0071BD1042007F81D0C57
:105C080017F81D0C04281DD131E0032186F8E300A4
:105C180086F8E21000200BB0BDE8000FF0BDA7F138
:105C28002600314601F059F817F81D0C042809D14F
:105C38001DE0A7F12600314600F0B7FF17F81D0C4C
:105C4800042814D017F81F0C002873D080280ED110
:105C5800A7F12603304641462A46FFF74EFD29F0B4
:105C68000109B9F1000FCDE9018507D14DE029F00F
:105C78000109B9F1000FCDE9018546D00299002943
:105C880053D0019801264FF0020B00EBC108A0F198
:105C9800080504982C461BEA000F0AD054F8080F90
:105CA80061688A6A3146904704F108004045F5D199
:105CB8000EE003982C461BEA000F09D054F8080F91
:105CC8006168CA6A3146904704F108004045F5D139
:105CD80005981BEA000F0DD066F07F04AA465AF813
:105CE800080FDAF804100A6B214690470AF10800F9
:105CF8004045F4D129EA0B095FEA094005D0701C38
:105D08000F2E4FEA4B0B0646C3D3029969B101988F
:105D180000EBC104A0F1080555F8080F6968C969C6
:105D2800884705F10800A042F6D101200BB0BDE874
:105D3800000FF0BDA7F12603304641462A46FFF77B
:105D480087FD29F00109B9F1000FCDE9018595D149
:105D5800DBE740F6DE4040F66452C2F22000C2F2B1
:105D680020021C2104F0BCFBFEDE48F20801C2F24E
:105D7800000188600120BFF35F8F08707047F0B59D
:105D880003AF4DF804BD82B048F20805C2F2000521
:105D98002C78BFF35F8F6CB3E878E0B107280ED298
:105DA8004FF0FF32297902FA00F005F108020843A2
:105DB80000F07F0007F8120CA7F1120008E0793014
:105DC80005F1080240F0800007F8130CA7F1130052
:105DD800012100F053FB05F10802A7F1110000268C
:105DE800012107F8116C00F049FB6878A5F80360F9
:105DF80004F015FB002C18BF0124204602B05DF802
:105E080004BBF0BDF0B503AF2DE9000F83B048F235
:105E18000808C2F2000898F80040BFF35F8F002C12
:105E28001CBF0D46002907D1002C18BF01242046AD
:105E380003B0BDE8000FF0BD064698F80300A7F1CF
:105E48002109A7F11E0B10E0793008F1080240F093
:105E5800800007F81F0CA7F11F00012100F00EFBBE
:105E68000020A8F80300013DDED016F8011BC2B2DD
:105E7800072A0DD239B308F1080207F8211C484651
:105E8800012100F0FBFA98F8030098F8041022E0CA
:105E98000029D9D008F1080A07F81E1C5846012124
:105EA800524600F0EBFA98F80300013088F8030036
:105EB800C1B28629D7D1FF20012107F81D0CA7F10F
:105EC8001D005246CAE798F80410012303FA02F2AB
:105ED800114388F80410013088F80300C2B2072A79
:105EE800C1D10A06BFD008F1080202A88DF808102F
:105EF800B3E7F0B503AF4DF8048D8C46816881B3E4
:105F0800C36841698B4249D20269D0F818E0D45C71
:105F18000134D4540EF102038B421ED80EF580745E
:105F2800A14238BF0C469C4248D3E41A052C14D32E
:105F38009CF80640BCF80450D45413440EF10704EE
:105F48009CF808608C429CF807805E704FEA152622
:105F58009D7083F80480DE7007D902205DF8048BF9
:105F6800F0BD07205DF8048BF0BD8E451ED20723D7
:105F780002F80E300EF101038B423FBF0521D154C8
:105F8800846108203CBF5DF8048BF0BD40F60062D8
:105F9800C2F22002184604F00BFBFEDE40F6106247
:105FA800C2F22002184604F003FBFEDE40F6F0526F
:105FB8007046C2F2200204F0FBFAFEDE40F6E05220
:105FC8001846C2F22002214604F007FFFEDE002038
:105FD80070477047082070477047006804F02EBB70
:105FE8000A46D0E9000104F0B2BE7047D0B502AF4E
:105FF8000C46517A012907D1117A012902BF90F87C
:106008002C1053888B4200D0D0BD9179212904BF30
:106018009188072928D0208800F00D00042818BF8F
:10602800D0BDE068092121800068BFF35F8F78B197
:10603800A17C012203F01FFAA0690068BFF35F8FFB
:1060480000281FBFA17F0122BDE8D04003F013BA8A
:1060580040F6206040F6AC62C2F22000C2F2200294
:10606800222104F070FAFEDE21880429CCD1E188CF
:10607800002290F804C0012390F805E00729C4F82D
:10608800AC208279006860622046238084F828204A
:1060980084F829E084F82AC028BF0721C4F8B01082
:1060A800BDE8D04000F0C8BED0B502AF84B00C4601
:1060B800517A012907D1117A012902BF90F82C10D1
:1060C80053888B4201D004B0D0BD917981B1202989
:1060D80012D0222942D11178228801F0010380F8D8
:1060E8002E30062AC1F3400180F82F10EBD122E0B0
:1060F80020880628E7D11EE0D4F8B010812957D2AD
:1061080006292BD994F8281094F8293094F82AE015
:106118000329626AB4F800C002604FF0000280F8F8
:1061280004E028BF1146052B817138BF1A46BCF11F
:10613800060F4271C7D1A0690168BFF35F8F59B3D9
:10614800A27F002041F2C003009002A8C2F22003FF
:1061580003F03FF80820208004B0D0BD208800F06C
:106168000D000428AFD1E068092121800068BFF341
:106178005F8F88B1A17C012203F07DF9A0690068D6
:10618800BFF35F8F00281FBFA17F012204B0BDE8C5
:10619800D04018BF03F06FB940F6206040F6AC62FB
:1061A800C2F22000C2F22002222104F0CCF9FEDE65
:1061B80040F62C720846C2F22002802104F0EDFD60
:1061C800FEDEF0B503AF4DF8048D84B090F82C6076
:1061D800804600250220CDE900050C4608463146D8
:1061E8000222022303F0D1FBC1B2082963D1204661
:1061F800314602220223009503F01DFCC1B2082992
:1062080059D140F63C722046C2F2200224210323D1
:1062180003F05BFAC1B208294DD140F63F7220461F
:10622800C2F220022421022303F04FFAC1B2082946
:1062380041D10620A7F1160207F8156C242198F819
:106248002D60032307F8160C204607F8146C03F09A
:106258003CFAC1B208292ED10120A7F1130227F870
:10626800130C20462421032307F8116C03F02DFAA0
:10627800C1B208291FD108F108012046FFF739FEED
:10628800C1B2082917D100203146009020460A22C1
:10629800002303F0D0FBC1B208290CD108F120017A
:1062A8002046FFF726FEC1B2082904D108F11401DF
:1062B8002046FFF71EFE04B05DF8048BF0BD0021F8
:1062C800C1858171082181804FF4FA5101607047BE
:1062D800F0B503AF2DE9000B84B040F644704BF2E3
:1062E80044584BF24805C2F220000390C2F200085D
:1062F80008F10800C2F2000502A90290284601220E
:10630800FFF710FC04460021D5F8DC00029102A931
:1063180000F0CAF9064695F8E21098F8000002293C
:1063280037D168B9D5F8DC0002F061FE0021D5F854
:10633800DC00029102A900F050FA012088F8000060
:10634800D8F81C000168BFF35F8F002900F08A802D
:10635800002098F8222040F6BC63009002A8C2F200
:106368002003344302F0DEFF7CB1D8F80400012298
:10637800BFF35F8F00F58264D4E84F1FC4E8432F52
:10638800002BF9D1BFF35F8F91B104B0BDE8000BCA
:10639800F0BD30B10021D5F8DC00029102A900F06F
:1063A800E4F9002088F8000004B0BDE8000BF0BD57
:1063B800D0F80014BFF35F8FD0F80824BFF35F8FC5
:1063C800D0F8043400F20445BFF35F8F934205D13F
:1063D80099423EBFBFF35F8F00232B60994228BFCD
:1063E8000A469A4236D0D8F828100968BFF35F8F5A
:1063F800C1B3A2EB030998F82E20034402A84E4625
:10640800B9F1400F28BF4026009602F0E2FE9DF841
:10641800080068B12078BFF35F8F0028B5D0BFF3BC
:106428005F8F55E8000F45E800010029F9D111E018
:1064380003982178BFF35F8F0029A6D0814538BF24
:106448004846BFF35F8F55E8001F014445E8001236
:10645800002AF8D10020BFF35F8F207004B0BDE898
:10646800000BF0BD40F6206040F6AC62C2F220009E
:10647800C2F22002222104F066F8FEDEF0B503AF76
:106488002DE90007166889461446804606F211452C
:106498000121BFF35F8FD5E84F0FC5E8421F002ADF
:1064A800F9D1BFF35F8F18B10120BDE80007F0BD37
:1064B800D6F80004BFF35F8FD6F80414BFF35F8FDC
:1064C800884204D2C24311EB020A0BD178E0B0F53E
:1064D800806F05D1012973D9A1F1010A002001E0DB
:1064E800C0F5806A4D46CA4538BF55464119304403
:1064F800BFF35F8FC6F80C1441462A4604F07DFFAF
:1065080096F81104BFF35F8F68B3D6F8000406F25B
:106518000C41BFF35F8FBFF35F8F51E8002F41E855
:106528000023002BF9D1BFF35F8FB0F5806FD6F849
:106538000824BFF35F8FD6F80C14BFF35F8F01D028
:10654800814203D3914205D94FF48060BFF35F8F36
:10655800C6F80804BFF35F8FC6F800140020BFF325
:106568005F8F86F81104CA456FD2246808EB0501CD
:10657800A9EB0502012304F21145BFF35F8FD5E8AB
:106588004F0FC5E8463F002EF9D10028BFF35F8FB3
:106598007FF48AAFD4F80004BFF35F8FD4F80434D3
:1065A800BFF35F8F984203D2C6439B1912D107E00D
:1065B800B0F5806F0CD1012B02D9013B002009E016
:1065C80000200021BFF35F8F2970BDE80007F0BDF0
:1065D800C0F58063934238BF1A4683182044BFF33E
:1065E8005F8FC4F80C3404F008FF94F81104BFF36B
:1065F8005F8F50B3D4F8000404F20C41BFF35F8FEF
:10660800BFF35F8F51E8002F41E80023002BF9D139
:10661800BFF35F8FB0F5806FD4F80824BFF35F8FA6
:10662800D4F80C14BFF35F8F01D0814203D3914299
:1066380005D94FF48060BFF35F8FC4F808040320C6
:10664800BFF35F8FC4F80014BBE70320BDE8000761
:10665800F0BD80B56F4682B048F20800C2F2000073
:106668000078BFF35F8FC8B103F0D2FE48F20A0189
:1066780048F20903C2F20001C2F200030A78187056
:1066880062B9012048F210020870002007F8010CD6
:10669800781EC2F200020121FFF7F0FE02B080BDB1
:1066A800FFF76DBBFFF7AEBBF0B503AF4DF804BD08
:1066B80082B0044690F83400C8B1206800284DD153
:1066C8004FF0FF30224642F8200B68460968CDE9B2
:1066D800001201F038F930B36D46284601F043F94D
:1066E800284601F030F90028F7D1012020E0EFF327
:1066F800108672B6206888BB08684FF0FF312246C2
:1067080042F8201BCDE90002684601F01CF9B0B13F
:106718006D46284601F027F9284601F014F90028AB
:10672800F7D1012010E0684601F0CBF880F00100B5
:1067380021680131216002B05DF804BBF0BD6846F4
:1067480001F0BFF880F00100216801312160F107F4
:10675800F1D162B602B05DF804BBF0BD40F6DC7062
:10676800C2F2200003F086FEFEDEB0B502AF82B0B2
:10677800044690F8340088B1206838BB4FF0FF30E9
:106788000968206004F1200001906846009101F03A
:10679800A2F820680130206002B0B0BDEFF3108588
:1067A80072B6206890B908684FF0FF31009004F184
:1067B800200001906846216001F08DF820680130C2
:1067C8002060E80700D162B602B0B0BD40F6DC70C8
:1067D800C2F2200003F04EFEFEDEB0B502AF82B07A
:1067E800044690F83400B0B1206888BB4FF0FF3001
:1067F800224642F8200B68460968CDE9001201F0EC
:10680800D6F800281CBF684601F04FF82068013010
:10681800206002B0B0BDEFF3108572B62068B8B939
:1068280008684FF0FF31224642F8201BCDE90002EC
:10683800684601F0BCF800281CBF684601F035F82E
:10684800206801302060E80700D162B602B0B0BD10
:1068580040F6DC70C2F2200003F00CFEFEDEF0B55C
:1068680003AF4DF804BD82B000228029019203D203
:106878008DF80410012434E0B1F5006F09D2022428
:106888000A4664F39F128DF80520C02242EA91114E
:1068980025E002220B4662F39F13B1F5803F0DD22B
:1068A8008DF806308B0962F39F13E02242EA11311A
:1068B8008DF805308DF80410032412E08DF80730A8
:1068C8008B0962F39F138DF806300B0B042462F3D7
:1068D8009F13890C1E228DF8053062F3DF018DF8B5
:1068E8000410066803F094FD0546B068B8B94FF087
:1068F800FF3006F10C02B06001A82146FFF7BEFD8B
:106908000446B0680130B060284603F088FDE0B264
:10691800033818BF012002B05DF804BBF0BD41F296
:106928009800C2F2200003F0A5FDFEDE0A4640F6FC
:10693800EC71C2F2200103F086BE7047F0B503AFD8
:106948002DE900074BF29052D1F80080C2F2000204
:106958001368B8EB030218BF0122984538BF4FF0FF
:10696800FF32531C1CBFD2B2002A29D142685AB345
:1069780000680025D1E9019A061D02EB4200840057
:1069880005E00C3C06F10C0605F1010518D030684D
:106998005045F6D156F8040C4946524605F0A0F881
:1069A8000028EED1706800218045A0F10600B0FAF9
:1069B80080F098BF012140090843BDE80007F0BDF9
:1069C8000020BDE80007F0BD0120BDE80007F0BDCC
:1069D800F0B503AF2DE9000F93B001904BF2905042
:1069E800C2F200008946D1F820A00168BAEB010084
:1069F80018BF01208A4538BF4FF0FF30411C1CBF2B
:106A0800C0B2002822D10199486818B3096800EB80
:106A18004000D9E909B54FF000080C1D860005E0D3
:106A28000C3E04F10C0408F101080FD02068A842BC
:106A3800F6D154F8040C59462A4605F051F80028B6
:106A4800EED16068062818BF824505D913B0BDE8A5
:106A5800000FF0BDD9E909B5019840F6EC71029034
:106A6800002007900420049041F20C00C2F220009C
:106A780003AA03900320069009A8059043F62B501B
:106A8800C0F20000C2F220010E9012A80D9043F649
:106A98003150C0F20000CDF83CA00C9010A80B902B
:106AA80045F28910C0F20000CDE910B50A900FA890
:106AB800099009F12C00129002A803F0C4FD13B04C
:106AC800BDE8000FF0BD7047F0B503AF4DF8048D79
:106AD80015460E46046803F09BFC8046A068B0B9D2
:106AE8004FF0FF3004F10C02A06030462946FFF752
:106AF800C5FC0546A0680130A060404603F08FFC45
:106B0800E8B2033818BF01205DF8048BF0BD41F2EC
:106B18009800C2F2200003F0ADFCFEDED0B502AF53
:106B28004BF27C520C46D1E90113C2F200024FF03D
:106B3800000CD06082E80A1041F2A801C2F22001DC
:106B4800104600F08BFC002801BF21684BF29052E0
:106B5800C2F200021160D0BDD0B502AF84B00446C5
:106B68000088062812D1A0690168BFF35F8F81B140
:106B78000020A27F41F2C003009002A8C2F22003C5
:106B880002F027FB0820208004B0D0BD072004B005
:106B9800D0BD40F6206040F6AC62C2F22000C2F2DE
:106BA8002002222103F0CFFCFEDEF0B503AF4DF842
:106BB80004BD86B0044608880D46411E032928D323
:106BC800052826D0072836D1D5F8AC00D5F80630E8
:106BD80069898128D5F80220ADF80C10CDE9012388
:106BE80073D2E9680968BFF35F8F002961D0C0F1EB
:106BF8008003AA7C2844009300F1240304A802F02F
:106C080091FB9DF8100000283ED09DF8110008BBAC
:106C180034E0E8680168BFF35F8F002949D0AA7C97
:106C280041F2C00304A80026C2F22003009602F035
:106C380079FB2E8022E0E8680168BFF35F8FC1B35B
:106C48000020AA7C41F2C003009004A8C2F22003ED
:106C580002F068FBE868092129800068BFF35F8FAC
:106C680038B3A97C012202F006FCA8690068BFF3CA
:106C78005F8FF0B1A97F012202F0FDFB0420607252
:106C880006B05DF804BBF0BD0598D5E92B120844A1
:106C9800C5F8AC009042F1D3DDE901010623BDF847
:106CA8000C202B8020606160228106B05DF804BB57
:106CB800F0BD40F6206040F6AC62C2F22000C2F29D
:106CC8002002222103F03FFCFEDE41F23012802137
:106CD800C2F2200204F041F8FEDEF0B503AF2DE960
:106CE800000F85B00446C8680D460168BFF35F8F82
:106CF800002900F08B8005F124068020AA7C0090F2
:106D080002A8334602F00EFB9DF8080018B19DF862
:106D1800090060B921E0039A812A80F0838002A8E3
:106D2800314602F0B4FC9DF8110004281BD1E86834
:106D3800092129800068BFF35F8F002866D0A97CED
:106D4800012202F098FBA8690068BFF35F8F002852
:106D58005CD0A97F012202F08EFB0420607205B08E
:106D6800BDE8000FF0BDE868BDF810A09DF80F6001
:106D78009DF80E90BDF80CB0DDF808800068BFF3F0
:106D88005F8F002842D0A97C002202F074FBBEB1BC
:106D98000420A5F80AA06E7285F80890A5F806B038
:106DA800C5F802802880A4F808A0E67184F8069047
:106DB800A4F804B0C4F8008005B0BDE8000FF0BD29
:106DC800BBF1000F11D0BBF1800FB0D80020A5F89F
:106DD8000AA0C5E92B0B6872072085F80890A5F86A
:106DE80006B0C5F802802880B7E70620A4F808A0F6
:106DF80028800020C5F8B000E07184F80690A080D3
:106E0800C4F8008005B0BDE8000FF0BD40F6206072
:106E180040F6AC62C2F22000C2F22002222103F046
:106E280092FBFEDE41F240131046C2F2200380219D
:106E38001A4603F0B2FFFEDEB0B502AF84B00446D6
:106E4800D0E92951D0F8AC00D4F8B0C0002DA38BFC
:106E5800AE46ACEB000208BF04F1240E9A4238BFDC
:106E68001346002D03EB000C08BF80219C4525D359
:106E78008C452BD8A1690968BFF35F8F71B3A27FD6
:106E880000930EEB000302A802F0A3F99DF8080096
:106E980008B104B0B0BD0398D4E92B120144C4F87A
:106EA800AC109142F5D30021A28BC4F8A4100321A1
:106EB800904208BF0221218004B0B0BD41F25012B7
:106EC8006146C2F2200203F088FFFEDE41F2501252
:106ED8006046C2F2200203F060FFFEDE40F620604A
:106EE80040F6AC62C2F22000C2F22002222103F076
:106EF8002AFBFEDEB0B502AF84B004460088013834
:106F0800072834D8DFE800F0040B24333333334B3D
:106F18002046FFF791FF0025284604B0B0BDA069C0
:106F28000168BFF35F8F00293FD0A27F41F2C00301
:106F380002A80025C2F22003009502F04AF99DF844
:106F48000800002804BF03202080284604B0B0BDF4
:106F5800E0680068BFF35F8F38B3A17C002200258A
:106F680002F089FA05202080284604B0B0BDE06808
:106F7800092121800068BFF35F8FB0B1A17C012295
:106F880002F079FAA0690068BFF35F8F68B1A17F4A
:106F9800012202F070FA0025284604B0B0BD002096
:106FA80001252080284604B0B0BD40F6206040F698
:106FB800AC62C2F22000C2F22002222103F0C3FA1E
:106FC800FEDED0B502AF0446008800F00D000428AC
:106FD80015D1E068092121800068BFF35F8F80B177
:106FE800A17C012202F047FAA0690068BFF35F8F15
:106FF80038B1A17F012202F03EFA0820D0BD072057
:10700800D0BD40F6206040F6AC62C2F22000C2F269
:107018002002222103F097FAFEDEB0B502AF88B055
:107028000446008804282CD1096800208022069094
:107038008DF81C00029000906846059204F1240225
:10704800E588049202F08EFBC1B2082917D1069890
:10705800802819D9E068092121800068BFF35F8F73
:1070680000B3A17C012202F006FAA0690068BFF310
:107078005F8FB8B1A17F012202F0FDF9022008B0AC
:10708800B0BD072008B0B0BDA84238BF05460120F2
:10709800002120802046C4E92B15FFF7CDFE0820EB
:1070A80008B0B0BD40F6206040F6AC62C2F22000E5
:1070B800C2F22002222103F046FAFEDEF0B503AF49
:1070C8002DE9000788B004460088042848D1D1E992
:1070D800000680228D680021059204F124020691A1
:1070E80004928DF81C100291009101686846B4F86A
:1070F800068002F0D1FBC1B208292DD18DB106EB73
:10710800C505E9464FF0000AD6E90001CA684946B4
:107118009047C1B208291FD10836CDF808A0AE4261
:10712800F2D1684602F020FC069880281DD9E06854
:10713800092121800068BFF35F8F30B3A17C012251
:1071480002F099F9A0690068BFF35F8FE8B1A17FE9
:10715800012202F090F9022008B0BDE80007F0BD56
:10716800072008B0BDE80007F0BD404538BF80469D
:107178000120002120802046C4E92B18FFF75CFE7F
:10718800082008B0BDE80007F0BD40F6206040F6D2
:10719800AC62C2F22000C2F22002222103F0D3F92D
:1071A800FEDEF0B503AF2DE9000B8CB081460088F8
:1071B800042827D100200D46079080218DF8200053
:1071C800164603900190099001A80B9009A8069112
:1071D80009F12401B9F80680059102F077FDC1B2E2
:1071E80008290BD1F40009AE8CB1F5E802010A694F
:1071F80031469047083CC1B20829F5D00CB0BDE82B
:10720800000BF0BD07200CB0BDE8000BF0BD09A8CD
:1072180002F034FE079880281DD9D9F80C000921FE
:10722800A9F800100068BFF35F8F28B399F812100F
:10723800012202F020F9D9F818000068BFF35F8F27
:10724800D0B199F81E10012202F015F902200CB0F5
:10725800BDE8000BF0BD404538BF80460120002145
:10726800A9F800004846C9E92B18FFF7E5FD0820F2
:107278000CB0BDE8000BF0BD40F6206040F6AC62F3
:10728800C2F22000C2F22002222103F05CF9FEDEE5
:10729800B0B502AF88B00446008804282DD1D1E9E2
:1072A80000120020802306908DF81C0002900090A8
:1072B8006846059304F12403E588049302F045FC2D
:1072C800C1B2082917D10698802819D9E068092180
:1072D80021800068BFF35F8F00B3A17C012202F018
:1072E800CAF8A0690068BFF35F8FB8B1A17F012217
:1072F80002F0C1F8022008B0B0BD072008B0B0BD48
:10730800A84238BF05460120002120802046C4E954
:107318002B15FFF791FD082008B0B0BD40F620609E
:1073280040F6AC62C2F22000C2F22002222103F031
:107338000AF9FEDEF0B503AF4DF804BD0446008837
:10734800042806D14D68802D07D902205DF804BBBA
:10735800F0BD07205DF804BBF0BD096804F1240006
:107368002A46E68804F049F80020B54238BF2E4680
:10737800C4E92B06012020802046FFF75DFD082088
:107388005DF804BBF0BDB0B502AF8AB00446008812
:10739800042833D1002080210790A7F10A028DF834
:1073A800200002230390019040F20940069104F165
:1073B800240127F80A0C01A805910321E58802F0A9
:1073C80084F9C1B2082917D10798802819D9E0682B
:1073D800092121800068BFF35F8F00B3A17C0122DF
:1073E80002F049F8A0690068BFF35F8FB8B1A17FC8
:1073F800012202F040F802200AB0B0BD07200AB00E
:10740800B0BDA84238BF0546012000212080204693
:10741800C4E92B15FFF710FD08200AB0B0BD40F6EF
:10742800206040F6AC62C2F22000C2F220022221A3
:1074380003F089F8FEDE7047006841F29812C2F244
:1074480020020B4652F8301002EBC0004268184682
:1074580003F042BB002070477047704780B56F4605
:107468004BF28C5EC2F2000E5EE8003F53B94FF05B
:10747800010CBFF35F8F4EE800C22AB15EE8003FFF
:10748800002BF8D0BFF32F8FBFF35F8F13B1012B01
:107498001ED02AE044F2EC22C2F20002C2E9000146
:1074A8000220BFF35F8FCEF800000020BFF35F8F8C
:1074B80080BD10BFDEF80000BFF35F8F012801BF59
:1074C80010BFDEF80000BFF35F8F01280DD110BF99
:1074D800DEF80000BFF35F8F012801BF10BFDEF8A0
:1074E8000000BFF35F8F0128E3D0012080BD40F288
:1074F8002762914238BF0A46B2F5487F98BF4FF4D9
:107508004872A2F5487144F2AF7300688AB25A43D0
:10751800C368A1EB124189B2490801EB124123F07B
:107528001F0242EA1111C16004E00168B1F1FF3F96
:10753800D8BF70470168002905D4016800295CBFDD
:1075480001680029F1D57047F0B503AF2DE9000BAC
:1075580044F2E043C4F21F031B68C3F30B2E4FEA47
:10756800135CE6451FBF0124C1F88841DBB24FF424
:107578007A781FBF03FB08F9ACEB0E04D1F89061D1
:1075880049F658651FBFCFF6FF7513FB085393FBE9
:10759800F4F3C2EA06021FBFC1F8902180E80A404E
:1075A800C0F80C90BDE8000B18BFF0BD41F2D01038
:1075B80041F26022C2F22000C2F22002192102F038
:1075C800C2FFFEDEB0B502AF054608680C4640F4BF
:1075D80080300860086840F040000860222063F3AB
:1075E8001340486040F26850C0F20C10086240F244
:1075F8009510C0F2B2004862DC20C0F27A008862BE
:107608007D20C0F25800C8624B20C0F240000863D9
:107618002F20C0F22E004863886346F62010C86009
:1076280040F6A31088604FF4C840C8614FF4C860A2
:10763800886140F6C410C0F6804008613F20486168
:10764800086820F0030010430860086820F48030C0
:107658000860C86F4021281D04F04EFA10202C60E5
:107668006864B0BD80B56F4600684FF400514FF4B0
:1076780080524FF0400C4FF4803E00E041610369B6
:107688009B04FBD50369DB0401D44261F7E7036976
:10769800B3F1FF3FF3DC0369DB0306D403695B0640
:1076A80048BF80BDC0F814C0E9E7C0F818E0E6E7B5
:1076B8000378D1F800C00FF20601DFE803F00407F1
:1076C8000A0D101316190CF1680C13E00CF16C0C70
:1076D80010E00CF1700C0DE00CF1740C0AE00CF1E8
:1076E800780C07E00CF17C0C04E00CF1800C01E054
:1076F8000CF1840C40780321DCF800304000C0B263
:10770800824001FA00F023EA00001043CCF80000A0
:107718007047006803E0816C002908BF7047816CDE
